{
  "contractName": "Gamble",
  "abi": [
    {
      "anonymous": false,
      "inputs": [
        {
          "indexed": true,
          "internalType": "address",
          "name": "oldOwner",
          "type": "address"
        },
        {
          "indexed": true,
          "internalType": "address",
          "name": "newOwner",
          "type": "address"
        }
      ],
      "name": "OwnerSet",
      "type": "event"
    },
    {
      "anonymous": false,
      "inputs": [
        {
          "indexed": false,
          "internalType": "address",
          "name": "gambler",
          "type": "address"
        },
        {
          "indexed": false,
          "internalType": "bool",
          "name": "ststus",
          "type": "bool"
        },
        {
          "indexed": false,
          "internalType": "uint256",
          "name": "reward",
          "type": "uint256"
        }
      ],
      "name": "gambleResult",
      "type": "event"
    },
    {
      "constant": true,
      "inputs": [],
      "name": "balance",
      "outputs": [
        {
          "internalType": "uint256",
          "name": "",
          "type": "uint256"
        }
      ],
      "payable": false,
      "stateMutability": "view",
      "type": "function"
    },
    {
      "constant": false,
      "inputs": [
        {
          "internalType": "address",
          "name": "newOwner",
          "type": "address"
        }
      ],
      "name": "changeOwner",
      "outputs": [],
      "payable": false,
      "stateMutability": "nonpayable",
      "type": "function"
    },
    {
      "constant": true,
      "inputs": [],
      "name": "getOwner",
      "outputs": [
        {
          "internalType": "address",
          "name": "",
          "type": "address"
        }
      ],
      "payable": false,
      "stateMutability": "view",
      "type": "function"
    },
    {
      "constant": true,
      "inputs": [],
      "name": "owner",
      "outputs": [
        {
          "internalType": "address",
          "name": "",
          "type": "address"
        }
      ],
      "payable": false,
      "stateMutability": "view",
      "type": "function"
    },
    {
      "constant": false,
      "inputs": [
        {
          "internalType": "uint256",
          "name": "luck",
          "type": "uint256"
        },
        {
          "internalType": "uint256",
          "name": "random",
          "type": "uint256"
        }
      ],
      "name": "gamble",
      "outputs": [],
      "payable": true,
      "stateMutability": "payable",
      "type": "function"
    },
    {
      "constant": false,
      "inputs": [],
      "name": "withdrawAll",
      "outputs": [
        {
          "internalType": "uint256",
          "name": "toTransfer",
          "type": "uint256"
        }
      ],
      "payable": false,
      "stateMutability": "nonpayable",
      "type": "function"
    }
  ],
  "bytecode": "0x6080604052678ac7230489e80000600155336000806101000a81548173ffffffffffffffffffffffffffffffffffffffff021916908373ffffffffffffffffffffffffffffffffffffffff1602179055506000809054906101000a900473ffffffffffffffffffffffffffffffffffffffff1673ffffffffffffffffffffffffffffffffffffffff16600073ffffffffffffffffffffffffffffffffffffffff167f342827c97908e5e2f71151c08502a66d44b6f758e3ac2f1de95f02eb95f0a73560405160405180910390a361065d806100db6000396000f3fe6080604052600436106100555760003560e01c806322e8c8fc1461005a578063853828b614610092578063893d20e8146100bd5780638da5cb5b14610114578063a6f9dae11461016b578063b69ef8a8146101bc575b600080fd5b6100906004803603604081101561007057600080fd5b8101908080359060200190929190803590602001909291905050506101e7565b005b34801561009e57600080fd5b506100a7610339565b6040518082815260200191505060405180910390f35b3480156100c957600080fd5b506100d2610454565b604051808273ffffffffffffffffffffffffffffffffffffffff1673ffffffffffffffffffffffffffffffffffffffff16815260200191505060405180910390f35b34801561012057600080fd5b5061012961047d565b604051808273ffffffffffffffffffffffffffffffffffffffff1673ffffffffffffffffffffffffffffffffffffffff16815260200191505060405180910390f35b34801561017757600080fd5b506101ba6004803603602081101561018e57600080fd5b81019080803573ffffffffffffffffffffffffffffffffffffffff1690602001909291905050506104a2565b005b3480156101c857600080fd5b506101d1610622565b6040518082815260200191505060405180910390f35b655af3107a4000803410156101fb57600080fd5b81831415610275576001600060146101000a81548160ff021916908315150217905550346002819055503373ffffffffffffffffffffffffffffffffffffffff166108fc60028054029081150290604051600060405180830381858888f1935050505015801561026f573d6000803e3d6000fd5b5061029a565b60008060146101000a81548160ff021916908315150217905550346000036002819055505b6002546001600082825403925050819055507f5da6b9f0efc520d08c2acf86982c658039d13bf6bb1ab4b341cf9145d9f6b5da33600060149054906101000a900460ff16600254604051808473ffffffffffffffffffffffffffffffffffffffff1673ffffffffffffffffffffffffffffffffffffffff16815260200183151515158152602001828152602001935050505060405180910390a1505050565b60008060009054906101000a900473ffffffffffffffffffffffffffffffffffffffff1673ffffffffffffffffffffffffffffffffffffffff163373ffffffffffffffffffffffffffffffffffffffff16146103fd576040517f08c379a00000000000000000000000000000000000000000000000000000000081526004018080602001828103825260138152602001807f43616c6c6572206973206e6f74206f776e65720000000000000000000000000081525060200191505060405180910390fd5b600154905060006001819055503373ffffffffffffffffffffffffffffffffffffffff166108fc829081150290604051600060405180830381858888f19350505050158015610450573d6000803e3d6000fd5b5090565b60008060009054906101000a900473ffffffffffffffffffffffffffffffffffffffff16905090565b6000809054906101000a900473ffffffffffffffffffffffffffffffffffffffff1681565b6000809054906101000a900473ffffffffffffffffffffffffffffffffffffffff1673ffffffffffffffffffffffffffffffffffffffff163373ffffffffffffffffffffffffffffffffffffffff1614610564576040517f08c379a00000000000000000000000000000000000000000000000000000000081526004018080602001828103825260138152602001807f43616c6c6572206973206e6f74206f776e65720000000000000000000000000081525060200191505060405180910390fd5b8073ffffffffffffffffffffffffffffffffffffffff166000809054906101000a900473ffffffffffffffffffffffffffffffffffffffff1673ffffffffffffffffffffffffffffffffffffffff167f342827c97908e5e2f71151c08502a66d44b6f758e3ac2f1de95f02eb95f0a73560405160405180910390a3806000806101000a81548173ffffffffffffffffffffffffffffffffffffffff021916908373ffffffffffffffffffffffffffffffffffffffff16021790555050565b6001548156fea265627a7a7231582075f309369473743485067cd002cd658749f7baa6d6191929d8b549b151c3c9af64736f6c634300050c0032",
  "source": "pragma solidity 0.5.12;\r\n\r\nimport \"./Ownable.sol\";\r\n\r\ncontract Gamble is Ownable{\r\n\r\n    bool win;\r\n    uint public balance = 10 ether;\r\n    uint reward;\r\n\r\n    event gambleResult (address gambler, bool ststus, uint reward);\r\n\r\n    modifier costs(uint value){\r\n        require(msg.value>=value);\r\n        _;\r\n    }\r\n\r\n    function gamble(uint luck, uint random)public payable costs(0.0001 ether){\r\n        if (luck == random){\r\n            win = true;\r\n            reward = msg.value;\r\n            msg.sender.transfer(reward*2);\r\n        }\r\n        else{\r\n            win = false;\r\n            reward = -msg.value;\r\n        }\r\n        balance -= reward;\r\n        emit gambleResult(msg.sender, win, reward);\r\n    }\r\n\r\n    function withdrawAll()public Owned returns(uint toTransfer){\r\n        toTransfer = balance;\r\n        balance = 0;\r\n        msg.sender.transfer(toTransfer);\r\n    }\r\n}\r\n",
  "sourcePath": "C:/Users/NARESH/Desktop/dapp_project/Gamble/contracts/Gamble.sol",
  "compiler": {
    "name": "solc",
    "version": "0.5.12+commit.7709ece9.Emscripten.clang"
  },
  "schemaVersion": "3.0.16",
  "updatedAt": "2020-08-04T08:00:27.808Z",
  "devdoc": {
    "methods": {}
  },
  "userdoc": {
    "methods": {}
  }
}